{
  "contractName": "Marketplace",
  "abi": [
    {
      "inputs": [],
      "payable": false,
      "stateMutability": "nonpayable",
      "type": "constructor"
    },
    {
      "anonymous": false,
      "inputs": [
        {
          "indexed": false,
          "internalType": "bytes32",
          "name": "productKey",
          "type": "bytes32"
        },
        {
          "indexed": false,
          "internalType": "uint256",
          "name": "id",
          "type": "uint256"
        },
        {
          "indexed": false,
          "internalType": "string",
          "name": "name",
          "type": "string"
        },
        {
          "indexed": false,
          "internalType": "string",
          "name": "description",
          "type": "string"
        },
        {
          "indexed": false,
          "internalType": "uint256",
          "name": "price",
          "type": "uint256"
        },
        {
          "indexed": false,
          "internalType": "string",
          "name": "mfdate",
          "type": "string"
        },
        {
          "indexed": false,
          "internalType": "string",
          "name": "expdate",
          "type": "string"
        },
        {
          "indexed": false,
          "internalType": "address payable",
          "name": "owner",
          "type": "address"
        },
        {
          "indexed": false,
          "internalType": "bool",
          "name": "isApproved",
          "type": "bool"
        },
        {
          "indexed": false,
          "internalType": "bool",
          "name": "purchased",
          "type": "bool"
        },
        {
          "indexed": false,
          "internalType": "address payable",
          "name": "currentowner",
          "type": "address"
        }
      ],
      "name": "ProductCreated",
      "type": "event"
    },
    {
      "anonymous": false,
      "inputs": [
        {
          "indexed": false,
          "internalType": "uint256",
          "name": "id",
          "type": "uint256"
        },
        {
          "indexed": false,
          "internalType": "string",
          "name": "name",
          "type": "string"
        },
        {
          "indexed": false,
          "internalType": "uint256",
          "name": "price",
          "type": "uint256"
        },
        {
          "indexed": false,
          "internalType": "address payable",
          "name": "owner",
          "type": "address"
        },
        {
          "indexed": false,
          "internalType": "bool",
          "name": "isApproved",
          "type": "bool"
        },
        {
          "indexed": false,
          "internalType": "address payable",
          "name": "approvedby",
          "type": "address"
        },
        {
          "indexed": false,
          "internalType": "bool",
          "name": "purchased",
          "type": "bool"
        },
        {
          "indexed": false,
          "internalType": "address payable[]",
          "name": "intemediary",
          "type": "address[]"
        }
      ],
      "name": "ProductDeployed",
      "type": "event"
    },
    {
      "anonymous": false,
      "inputs": [
        {
          "indexed": false,
          "internalType": "uint256",
          "name": "id",
          "type": "uint256"
        },
        {
          "indexed": false,
          "internalType": "string",
          "name": "name",
          "type": "string"
        },
        {
          "indexed": false,
          "internalType": "uint256",
          "name": "price",
          "type": "uint256"
        },
        {
          "indexed": false,
          "internalType": "address payable",
          "name": "owner",
          "type": "address"
        },
        {
          "indexed": false,
          "internalType": "bool",
          "name": "isApproved",
          "type": "bool"
        },
        {
          "indexed": false,
          "internalType": "bool",
          "name": "purchased",
          "type": "bool"
        }
      ],
      "name": "ProductPurchased",
      "type": "event"
    },
    {
      "anonymous": false,
      "inputs": [
        {
          "indexed": false,
          "internalType": "uint256",
          "name": "id",
          "type": "uint256"
        },
        {
          "indexed": false,
          "internalType": "string",
          "name": "name",
          "type": "string"
        },
        {
          "indexed": false,
          "internalType": "uint256",
          "name": "price",
          "type": "uint256"
        },
        {
          "indexed": false,
          "internalType": "address payable",
          "name": "owner",
          "type": "address"
        },
        {
          "indexed": false,
          "internalType": "bool",
          "name": "isApproved",
          "type": "bool"
        },
        {
          "indexed": false,
          "internalType": "bool",
          "name": "purchased",
          "type": "bool"
        }
      ],
      "name": "ProductTransferred",
      "type": "event"
    },
    {
      "constant": true,
      "inputs": [],
      "name": "deployedProductCount",
      "outputs": [
        {
          "internalType": "uint256",
          "name": "",
          "type": "uint256"
        }
      ],
      "payable": false,
      "stateMutability": "view",
      "type": "function"
    },
    {
      "constant": true,
      "inputs": [
        {
          "internalType": "uint256",
          "name": "",
          "type": "uint256"
        }
      ],
      "name": "deployedproducts",
      "outputs": [
        {
          "internalType": "bytes32",
          "name": "productKey",
          "type": "bytes32"
        },
        {
          "internalType": "uint256",
          "name": "id",
          "type": "uint256"
        },
        {
          "internalType": "string",
          "name": "name",
          "type": "string"
        },
        {
          "internalType": "string",
          "name": "description",
          "type": "string"
        },
        {
          "internalType": "string",
          "name": "mfdate",
          "type": "string"
        },
        {
          "internalType": "string",
          "name": "expdate",
          "type": "string"
        },
        {
          "internalType": "address payable",
          "name": "owner",
          "type": "address"
        },
        {
          "internalType": "bool",
          "name": "isApproved",
          "type": "bool"
        },
        {
          "internalType": "address",
          "name": "approvedby",
          "type": "address"
        },
        {
          "internalType": "bool",
          "name": "purchased",
          "type": "bool"
        },
        {
          "internalType": "address",
          "name": "currentowner",
          "type": "address"
        }
      ],
      "payable": false,
      "stateMutability": "view",
      "type": "function"
    },
    {
      "constant": true,
      "inputs": [],
      "name": "name",
      "outputs": [
        {
          "internalType": "string",
          "name": "",
          "type": "string"
        }
      ],
      "payable": false,
      "stateMutability": "view",
      "type": "function"
    },
    {
      "constant": true,
      "inputs": [],
      "name": "productCount",
      "outputs": [
        {
          "internalType": "uint256",
          "name": "",
          "type": "uint256"
        }
      ],
      "payable": false,
      "stateMutability": "view",
      "type": "function"
    },
    {
      "constant": true,
      "inputs": [
        {
          "internalType": "uint256",
          "name": "",
          "type": "uint256"
        }
      ],
      "name": "products",
      "outputs": [
        {
          "internalType": "bytes32",
          "name": "productKey",
          "type": "bytes32"
        },
        {
          "internalType": "uint256",
          "name": "id",
          "type": "uint256"
        },
        {
          "internalType": "string",
          "name": "name",
          "type": "string"
        },
        {
          "internalType": "string",
          "name": "description",
          "type": "string"
        },
        {
          "internalType": "uint256",
          "name": "price",
          "type": "uint256"
        },
        {
          "internalType": "string",
          "name": "mfdate",
          "type": "string"
        },
        {
          "internalType": "string",
          "name": "expdate",
          "type": "string"
        },
        {
          "internalType": "address payable",
          "name": "owner",
          "type": "address"
        },
        {
          "internalType": "bool",
          "name": "isApproved",
          "type": "bool"
        },
        {
          "internalType": "bool",
          "name": "purchased",
          "type": "bool"
        },
        {
          "internalType": "address",
          "name": "currentowner",
          "type": "address"
        }
      ],
      "payable": false,
      "stateMutability": "view",
      "type": "function"
    },
    {
      "constant": false,
      "inputs": [
        {
          "internalType": "string",
          "name": "_name",
          "type": "string"
        },
        {
          "internalType": "string",
          "name": "_description",
          "type": "string"
        },
        {
          "internalType": "uint256",
          "name": "_price",
          "type": "uint256"
        },
        {
          "internalType": "string",
          "name": "_mfdate",
          "type": "string"
        },
        {
          "internalType": "string",
          "name": "_expdate",
          "type": "string"
        }
      ],
      "name": "createProduct",
      "outputs": [],
      "payable": false,
      "stateMutability": "nonpayable",
      "type": "function"
    },
    {
      "constant": false,
      "inputs": [
        {
          "internalType": "uint256",
          "name": "_id",
          "type": "uint256"
        }
      ],
      "name": "approveProducts",
      "outputs": [],
      "payable": true,
      "stateMutability": "payable",
      "type": "function"
    }
  ],
  "bytecode": "0x6080604052600060015560006002553480156200001b57600080fd5b506040518060400160405280600f81526020017f42656e756b612057697468616e67650000000000000000000000000000000000815250600090805190602001906200006992919062000070565b506200011f565b828054600181600116156101000203166002900490600052602060002090601f016020900481019282601f10620000b357805160ff1916838001178555620000e4565b82800160010185558215620000e4579182015b82811115620000e3578251825591602001919060010190620000c6565b5b509050620000f39190620000f7565b5090565b6200011c91905b8082111562000118576000816000905550600101620000fe565b5090565b90565b611c85806200012f6000396000f3fe6080604052600436106100705760003560e01c8063b9517fd31161004e578063b9517fd314610643578063d17209d714610671578063e0f6ef8714610908578063f27a8fba1461093357610070565b806306fdde03146100755780635e34085c146101055780637acc0b20146103ba575b600080fd5b34801561008157600080fd5b5061008a61095e565b6040518080602001828103825283818151815260200191508051906020019080838360005b838110156100ca5780820151818401526020810190506100af565b50505050905090810190601f1680156100f75780820380516001836020036101000a031916815260200191505b509250505060405180910390f35b34801561011157600080fd5b5061013e6004803603602081101561012857600080fd5b81019080803590602001909291905050506109fc565b604051808c81526020018b8152602001806020018060200180602001806020018a73ffffffffffffffffffffffffffffffffffffffff1673ffffffffffffffffffffffffffffffffffffffff168152602001891515151581526020018873ffffffffffffffffffffffffffffffffffffffff1673ffffffffffffffffffffffffffffffffffffffff168152602001871515151581526020018673ffffffffffffffffffffffffffffffffffffffff1673ffffffffffffffffffffffffffffffffffffffff16815260200185810385528e818151815260200191508051906020019080838360005b83811015610240578082015181840152602081019050610225565b50505050905090810190601f16801561026d5780820380516001836020036101000a031916815260200191505b5085810384528d818151815260200191508051906020019080838360005b838110156102a657808201518184015260208101905061028b565b50505050905090810190601f1680156102d35780820380516001836020036101000a031916815260200191505b5085810383528c818151815260200191508051906020019080838360005b8381101561030c5780820151818401526020810190506102f1565b50505050905090810190601f1680156103395780820380516001836020036101000a031916815260200191505b5085810382528b818151815260200191508051906020019080838360005b83811015610372578082015181840152602081019050610357565b50505050905090810190601f16801561039f5780820380516001836020036101000a031916815260200191505b509f5050505050505050505050505050505060405180910390f35b3480156103c657600080fd5b506103f3600480360360208110156103dd57600080fd5b8101908080359060200190929190505050610d30565b604051808c81526020018b815260200180602001806020018a815260200180602001806020018973ffffffffffffffffffffffffffffffffffffffff1673ffffffffffffffffffffffffffffffffffffffff16815260200188151515158152602001871515151581526020018673ffffffffffffffffffffffffffffffffffffffff1673ffffffffffffffffffffffffffffffffffffffff16815260200185810385528e818151815260200191508051906020019080838360005b838110156104c95780820151818401526020810190506104ae565b50505050905090810190601f1680156104f65780820380516001836020036101000a031916815260200191505b5085810384528d818151815260200191508051906020019080838360005b8381101561052f578082015181840152602081019050610514565b50505050905090810190601f16801561055c5780820380516001836020036101000a031916815260200191505b5085810383528b818151815260200191508051906020019080838360005b8381101561059557808201518184015260208101905061057a565b50505050905090810190601f1680156105c25780820380516001836020036101000a031916815260200191505b5085810382528a818151815260200191508051906020019080838360005b838110156105fb5780820151818401526020810190506105e0565b50505050905090810190601f1680156106285780820380516001836020036101000a031916815260200191505b509f5050505050505050505050505050505060405180910390f35b61066f6004803603602081101561065957600080fd5b8101908080359060200190929190505050611044565b005b34801561067d57600080fd5b50610906600480360360a081101561069457600080fd5b81019080803590602001906401000000008111156106b157600080fd5b8201836020820111156106c357600080fd5b803590602001918460018302840111640100000000831117156106e557600080fd5b91908080601f016020809104026020016040519081016040528093929190818152602001838380828437600081840152601f19601f8201169050808301925050505050505091929192908035906020019064010000000081111561074857600080fd5b82018360208201111561075a57600080fd5b8035906020019184600183028401116401000000008311171561077c57600080fd5b91908080601f016020809104026020016040519081016040528093929190818152602001838380828437600081840152601f19601f82011690508083019250505050505050919291929080359060200190929190803590602001906401000000008111156107e957600080fd5b8201836020820111156107fb57600080fd5b8035906020019184600183028401116401000000008311171561081d57600080fd5b91908080601f016020809104026020016040519081016040528093929190818152602001838380828437600081840152601f19601f8201169050808301925050505050505091929192908035906020019064010000000081111561088057600080fd5b82018360208201111561089257600080fd5b803590602001918460018302840111640100000000831117156108b457600080fd5b91908080601f016020809104026020016040519081016040528093929190818152602001838380828437600081840152601f19601f82011690508083019250505050505050919291929050505061160d565b005b34801561091457600080fd5b5061091d611b1f565b6040518082815260200191505060405180910390f35b34801561093f57600080fd5b50610948611b25565b6040518082815260200191505060405180910390f35b60008054600181600116156101000203166002900480601f0160208091040260200160405190810160405280929190818152602001828054600181600116156101000203166002900480156109f45780601f106109c9576101008083540402835291602001916109f4565b820191906000526020600020905b8154815290600101906020018083116109d757829003601f168201915b505050505081565b6003602052806000526040600020600091509050806000015490806001015490806002018054600181600116156101000203166002900480601f016020809104026020016040519081016040528092919081815260200182805460018160011615610100020316600290048015610ab45780601f10610a8957610100808354040283529160200191610ab4565b820191906000526020600020905b815481529060010190602001808311610a9757829003601f168201915b505050505090806003018054600181600116156101000203166002900480601f016020809104026020016040519081016040528092919081815260200182805460018160011615610100020316600290048015610b525780601f10610b2757610100808354040283529160200191610b52565b820191906000526020600020905b815481529060010190602001808311610b3557829003601f168201915b505050505090806004018054600181600116156101000203166002900480601f016020809104026020016040519081016040528092919081815260200182805460018160011615610100020316600290048015610bf05780601f10610bc557610100808354040283529160200191610bf0565b820191906000526020600020905b815481529060010190602001808311610bd357829003601f168201915b505050505090806005018054600181600116156101000203166002900480601f016020809104026020016040519081016040528092919081815260200182805460018160011615610100020316600290048015610c8e5780601f10610c6357610100808354040283529160200191610c8e565b820191906000526020600020905b815481529060010190602001808311610c7157829003601f168201915b5050505050908060060160009054906101000a900473ffffffffffffffffffffffffffffffffffffffff16908060060160149054906101000a900460ff16908060070160009054906101000a900473ffffffffffffffffffffffffffffffffffffffff16908060070160149054906101000a900460ff16908060080160009054906101000a900473ffffffffffffffffffffffffffffffffffffffff1690508b565b6004602052806000526040600020600091509050806000015490806001015490806002018054600181600116156101000203166002900480601f016020809104026020016040519081016040528092919081815260200182805460018160011615610100020316600290048015610de85780601f10610dbd57610100808354040283529160200191610de8565b820191906000526020600020905b815481529060010190602001808311610dcb57829003601f168201915b505050505090806003018054600181600116156101000203166002900480601f016020809104026020016040519081016040528092919081815260200182805460018160011615610100020316600290048015610e865780601f10610e5b57610100808354040283529160200191610e86565b820191906000526020600020905b815481529060010190602001808311610e6957829003601f168201915b505050505090806004015490806005018054600181600116156101000203166002900480601f016020809104026020016040519081016040528092919081815260200182805460018160011615610100020316600290048015610f2a5780601f10610eff57610100808354040283529160200191610f2a565b820191906000526020600020905b815481529060010190602001808311610f0d57829003601f168201915b505050505090806006018054600181600116156101000203166002900480601f016020809104026020016040519081016040528092919081815260200182805460018160011615610100020316600290048015610fc85780601f10610f9d57610100808354040283529160200191610fc8565b820191906000526020600020905b815481529060010190602001808311610fab57829003601f168201915b5050505050908060070160009054906101000a900473ffffffffffffffffffffffffffffffffffffffff16908060070160149054906101000a900460ff16908060070160159054906101000a900460ff16908060080160009054906101000a900473ffffffffffffffffffffffffffffffffffffffff1690508b565b600060046000838152602001908152602001600020905060016004600084815260200190815260200160002060070160146101000a81548160ff02191690831515021790555060008160070160009054906101000a900473ffffffffffffffffffffffffffffffffffffffff1690503373ffffffffffffffffffffffffffffffffffffffff168173ffffffffffffffffffffffffffffffffffffffff1614156110ec57600080fd5b6000826000015490506060836002018054600181600116156101000203166002900480601f01602080910402602001604051908101604052809291908181526020018280546001816001161561010002031660029004801561118f5780601f106111645761010080835404028352916020019161118f565b820191906000526020600020905b81548152906001019060200180831161117257829003601f168201915b505050505090506060846003018054600181600116156101000203166002900480601f0160208091040260200160405190810160405280929190818152602001828054600181600116156101000203166002900480156112305780601f1061120557610100808354040283529160200191611230565b820191906000526020600020905b81548152906001019060200180831161121357829003601f168201915b505050505090506060856005018054600181600116156101000203166002900480601f0160208091040260200160405190810160405280929190818152602001828054600181600116156101000203166002900480156112d15780601f106112a6576101008083540402835291602001916112d1565b820191906000526020600020905b8154815290600101906020018083116112b457829003601f168201915b505050505090506060866006018054600181600116156101000203166002900480601f0160208091040260200160405190810160405280929190818152602001828054600181600116156101000203166002900480156113725780601f1061134757610100808354040283529160200191611372565b820191906000526020600020905b81548152906001019060200180831161135557829003601f168201915b5050505050905060003390508760070160159054906101000a900460ff161561139a57600080fd5b6002600081548092919060010191905055508073ffffffffffffffffffffffffffffffffffffffff166108fc6103e88a60040154816113d557fe5b049081150290604051600060405180830381858888f19350505050158015611401573d6000803e3d6000fd5b5085600360006002548152602001908152602001600020600001819055506002546003600060025481526020019081526020016000206001018190555084600360006002548152602001908152602001600020600201908051906020019061146a929190611b2b565b50836003600060025481526020019081526020016000206003019080519060200190611497929190611b2b565b508260036000600254815260200190815260200160002060040190805190602001906114c4929190611b2b565b508160036000600254815260200190815260200160002060050190805190602001906114f1929190611b2b565b508660036000600254815260200190815260200160002060060160006101000a81548173ffffffffffffffffffffffffffffffffffffffff021916908373ffffffffffffffffffffffffffffffffffffffff160217905550600160036000600254815260200190815260200160002060060160146101000a81548160ff0219169083151502179055508060036000600254815260200190815260200160002060070160006101000a81548173ffffffffffffffffffffffffffffffffffffffff021916908373ffffffffffffffffffffffffffffffffffffffff160217905550600060036000600254815260200190815260200160002060070160146101000a81548160ff021916908315150217905550505050505050505050565b600085511161161b57600080fd5b6000831161162857600080fd5b600160008154809291906001019190505550600033600154604051602001808373ffffffffffffffffffffffffffffffffffffffff1673ffffffffffffffffffffffffffffffffffffffff1660601b81526014018281526020019250505060405160208183030381529060405280519060200120905060405180610160016040528082815260200160015481526020018781526020018681526020018581526020018481526020018381526020013373ffffffffffffffffffffffffffffffffffffffff1681526020016000151581526020016000151581526020013373ffffffffffffffffffffffffffffffffffffffff1681525060046000600154815260200190815260200160002060008201518160000155602082015181600101556040820151816002019080519060200190611763929190611bab565b506060820151816003019080519060200190611780929190611bab565b506080820151816004015560a08201518160050190805190602001906117a7929190611bab565b5060c08201518160060190805190602001906117c4929190611bab565b5060e08201518160070160006101000a81548173ffffffffffffffffffffffffffffffffffffffff021916908373ffffffffffffffffffffffffffffffffffffffff1602179055506101008201518160070160146101000a81548160ff0219169083151502179055506101208201518160070160156101000a81548160ff0219169083151502179055506101408201518160080160006101000a81548173ffffffffffffffffffffffffffffffffffffffff021916908373ffffffffffffffffffffffffffffffffffffffff1602179055509050507fc30a146149973c246963735f41910490fa9fb74fe32f91a67f8646825087f5ec8160015488888888883360008033604051808c81526020018b815260200180602001806020018a815260200180602001806020018973ffffffffffffffffffffffffffffffffffffffff1673ffffffffffffffffffffffffffffffffffffffff16815260200188151515158152602001871515151581526020018673ffffffffffffffffffffffffffffffffffffffff1673ffffffffffffffffffffffffffffffffffffffff16815260200185810385528e818151815260200191508051906020019080838360005b8381101561199e578082015181840152602081019050611983565b50505050905090810190601f1680156119cb5780820380516001836020036101000a031916815260200191505b5085810384528d818151815260200191508051906020019080838360005b83811015611a045780820151818401526020810190506119e9565b50505050905090810190601f168015611a315780820380516001836020036101000a031916815260200191505b5085810383528b818151815260200191508051906020019080838360005b83811015611a6a578082015181840152602081019050611a4f565b50505050905090810190601f168015611a975780820380516001836020036101000a031916815260200191505b5085810382528a818151815260200191508051906020019080838360005b83811015611ad0578082015181840152602081019050611ab5565b50505050905090810190601f168015611afd5780820380516001836020036101000a031916815260200191505b509f5050505050505050505050505050505060405180910390a1505050505050565b60015481565b60025481565b828054600181600116156101000203166002900490600052602060002090601f016020900481019282601f10611b6c57805160ff1916838001178555611b9a565b82800160010185558215611b9a579182015b82811115611b99578251825591602001919060010190611b7e565b5b509050611ba79190611c2b565b5090565b828054600181600116156101000203166002900490600052602060002090601f016020900481019282601f10611bec57805160ff1916838001178555611c1a565b82800160010185558215611c1a579182015b82811115611c19578251825591602001919060010190611bfe565b5b509050611c279190611c2b565b5090565b611c4d91905b80821115611c49576000816000905550600101611c31565b5090565b9056fea265627a7a72315820e6b9bde2d3d78c0c9c7d0d73097db1658c38129c8aa7522905a5d5ad9c60562964736f6c634300050c0032",
  "source": "pragma solidity ^0.5.0;\r\n\r\ncontract Marketplace {\r\n\r\n    string public name;\r\n    uint public productCount = 0;\r\n    uint public deployedProductCount = 0;\r\n    //mapping(bytes32 => uint) public productsfromid;\r\n    mapping(uint => DeployedProduct) public deployedproducts;\r\n    //mapping(bytes32 => Product) public products;\r\n    mapping(uint => Product) public products;\r\n\r\n\r\n    struct Product{\r\n        bytes32 productKey;\r\n        uint id;\r\n        string name;\r\n        string description;\r\n        uint price;\r\n        string mfdate;\r\n        string expdate;\r\n        address payable owner;\r\n        bool isApproved;\r\n        bool purchased;\r\n        address  currentowner;\r\n    }\r\n\r\n    struct DeployedProduct{\r\n        bytes32 productKey;\r\n        uint id;\r\n        string name;\r\n        string description;\r\n        string mfdate;\r\n        string expdate;\r\n        address payable owner;\r\n        bool isApproved;\r\n        address approvedby;\r\n        bool purchased;\r\n        address currentowner;\r\n    }\r\n\r\n    event ProductCreated(\r\n        bytes32 productKey,\r\n        uint id,\r\n        string name,\r\n        string description,\r\n        uint price,\r\n        string mfdate,\r\n        string expdate,\r\n        address payable owner,\r\n        bool isApproved,\r\n        bool purchased,\r\n        address payable currentowner\r\n    );\r\n\r\n     event ProductDeployed(\r\n        uint id,\r\n        string name,\r\n        uint price,\r\n        address payable owner,\r\n        bool isApproved,\r\n        address payable approvedby,\r\n        bool purchased,\r\n        address payable[] intemediary\r\n    );\r\n\r\n    event ProductPurchased(\r\n        uint id,\r\n        string name,\r\n        uint price,\r\n        address payable owner,\r\n        bool isApproved,\r\n        bool purchased\r\n    );\r\n\r\n    event ProductTransferred(\r\n        uint id,\r\n        string name,\r\n        uint price,\r\n        address payable owner,\r\n        bool isApproved,\r\n        bool purchased\r\n    );\r\n\r\n    function createProduct(string memory _name, string memory _description, uint _price, string memory _mfdate, string memory _expdate) public {\r\n        // Require a valid name\r\n        require(bytes(_name).length > 0);\r\n        // Require a valid price\r\n        require(_price > 0);\r\n        // Increment product count\r\n        productCount ++;\r\n         //\r\n       \r\n        bytes32 hash = keccak256(abi.encodePacked(msg.sender,productCount));\r\n        products[productCount] = Product(hash, productCount, _name, _description, _price, _mfdate, _expdate, msg.sender, false, false, msg.sender);\r\n        // Create the product\r\n        //products[productCount] = Product(productCount, _name, _price, msg.sender, false, false);\r\n        // Trigger an event\r\n        emit ProductCreated(hash, productCount, _name, _description, _price, _mfdate, _expdate, msg.sender, false, false, msg.sender );\r\n    }\r\n\r\n   \r\n    // function purchaseProduct(uint _id) public payable {\r\n    //     // Fetch the product\r\n    //     Product memory _product = products[_id];\r\n    //     // Fetch the owner\r\n    //     address payable _seller = _product.owner;\r\n    //     // Make sure the product has a valid id\r\n    //     require(_product.id > 0 && _product.id <= productCount);\r\n    //     // Require that there is enough Ether in the transaction\r\n    //     require(msg.value >= _product.price);\r\n    //     // Require that the product has been approved and certified by authority\r\n    //     require(!_product.isApproved);\r\n    //     // Require that the product has not been purchased already\r\n    //     require(!_product.purchased);\r\n    //     // Require that the buyer is not the seller\r\n    //     require(_seller != msg.sender);\r\n    //     // Transfer ownership to the buyer\r\n    //     _product.owner = msg.sender;\r\n    //     // Mark as purchased\r\n    //     _product.purchased = true;\r\n    //     // Update the product\r\n    //     products[_id] = _product;\r\n    //     // Pay the seller by sending them Ether\r\n    //     address(_seller).transfer(msg.value);\r\n    //     // Trigger an event\r\n    //     emit ProductPurchased(productCount, _product.name, _product.price, msg.sender, true, true);\r\n    // }\r\n\r\n    function approveProducts(uint _id) public payable{\r\n        // Fetch the product\r\n        Product storage _product = products[_id];\r\n        products[_id].isApproved = true;\r\n\r\n        // Fetch the owner\r\n         address payable _manufacturer = _product.owner;\r\n         // Require that the buyer is not the seller\r\n        require(_manufacturer != msg.sender);\r\n        // //fetch details\r\n        bytes32 productKey = _product.productKey;\r\n        string memory _name = _product.name;\r\n        string memory _description = _product.description;\r\n        //uint _price = _product.price;\r\n        string memory _mfdate = _product.mfdate;\r\n        string memory _expdate = _product.expdate;\r\n        // Get the Approver address\r\n        address payable _approver = msg.sender;\r\n        // Require that the product has not been purchased already\r\n        require(!_product.purchased);\r\n        //increment deployed product count\r\n        deployedProductCount ++;\r\n        // Pay the approver by sending them Ether\r\n        address(_approver).transfer(_product.price/1000);\r\n        deployedproducts[deployedProductCount].productKey = productKey;\r\n        deployedproducts[deployedProductCount].id = deployedProductCount;\r\n        deployedproducts[deployedProductCount].name = _name;\r\n        deployedproducts[deployedProductCount].description = _description;\r\n        deployedproducts[deployedProductCount].mfdate = _mfdate;\r\n        deployedproducts[deployedProductCount].expdate = _expdate;\r\n        //deployedproducts[deployedProductCount].price = _price;\r\n        deployedproducts[deployedProductCount].owner = _manufacturer;\r\n        deployedproducts[deployedProductCount].isApproved = true;\r\n        deployedproducts[deployedProductCount].approvedby = _approver;\r\n        deployedproducts[deployedProductCount].purchased = false;\r\n        \r\n        //deployedproducts[deployedProductCount].intemediary.push(_manufacturer);\r\n        // Create the product\r\n     //  deployedproducts[deployedProductCount].approvedby = msg.sender;\r\n     // deployedproducts[deployedProductCount] = DeployedProduct(deployedProductCount, _name, _price, _manufacturer, true, _approver, false,intemediary[0] =_manufacturer;\r\n        // Trigger an event)\r\n      //emit ProductDeployed(deployedProductCount, _name, _price, _manufacturer, true, _approver, false, );\r\n\r\n    }\r\n\r\n    // function transferProduct(uint _id) public payable {\r\n    //     // Fetch the product\r\n    //     Product memory _product = products[_id];\r\n    //     // Fetch the owner\r\n    //     address payable _seller = _product.owner;\r\n    //     // Make sure the product has a valid id\r\n    //     require(_product.id > 0 && _product.id <= productCount);\r\n    //     // Require that there is enough Ether in the transaction\r\n    //     require(msg.value >= _product.price);\r\n    //      // Require that the product has been approved and certified by authority\r\n    //     require(!_product.isApproved);\r\n    //     // Require that the product has not been purchased already\r\n    //     require(!_product.purchased);\r\n    //     // Require that the buyer is not the seller\r\n    //     require(_seller != msg.sender);\r\n    //     // Transfer ownership to the buyer\r\n    //     _product.owner = msg.sender;\r\n    //     // // Mark as purchased\r\n    //     // _product.purchased = false;\r\n    //     // Update the product\r\n    //     products[_id] = _product;\r\n    //     // Pay the seller by sending them Ether\r\n    //     address(_seller).transfer(msg.value);\r\n    //     // Trigger an event\r\n    //     emit ProductTransferred(productCount, _product.name, _product.price, msg.sender, true, true);\r\n    // }\r\n\r\n\r\n    constructor() public {\r\n        name = \"Benuka Withange\";\r\n    }\r\n\r\n}",
  "sourcePath": "C:/Users/Benuka/Desktop/New folder/starter_kit/src/contracts/Marketplace.sol",
  "compiler": {
    "name": "solc",
    "version": "0.5.12+commit.7709ece9.Emscripten.clang"
  },
  "schemaVersion": "3.0.20",
  "updatedAt": "2020-01-22T06:58:09.686Z",
  "networkType": "ethereum",
  "devdoc": {
    "methods": {}
  },
  "userdoc": {
    "methods": {}
  }
}